{
  "_format": "hh-sol-artifact-1",
  "contractName": "web3Drive",
  "sourceName": "contracts/web3Drive.sol",
  "abi": [
    {
      "inputs": [
        {
          "internalType": "address",
          "name": "user",
          "type": "address"
        },
        {
          "internalType": "string",
          "name": "url",
          "type": "string"
        }
      ],
      "name": "addURL",
      "outputs": [],
      "stateMutability": "nonpayable",
      "type": "function"
    },
    {
      "inputs": [
        {
          "internalType": "address",
          "name": "user",
          "type": "address"
        }
      ],
      "name": "display",
      "outputs": [
        {
          "internalType": "string[]",
          "name": "",
          "type": "string[]"
        }
      ],
      "stateMutability": "view",
      "type": "function"
    },
    {
      "inputs": [
        {
          "internalType": "address",
          "name": "user",
          "type": "address"
        }
      ],
      "name": "giveAccess",
      "outputs": [],
      "stateMutability": "nonpayable",
      "type": "function"
    },
    {
      "inputs": [
        {
          "internalType": "address",
          "name": "user",
          "type": "address"
        }
      ],
      "name": "removeAccess",
      "outputs": [],
      "stateMutability": "nonpayable",
      "type": "function"
    },
    {
      "inputs": [],
      "name": "shareAccess",
      "outputs": [
        {
          "components": [
            {
              "internalType": "address",
              "name": "user",
              "type": "address"
            },
            {
              "internalType": "bool",
              "name": "access",
              "type": "bool"
            }
          ],
          "internalType": "struct web3Drive.Access[]",
          "name": "",
          "type": "tuple[]"
        }
      ],
      "stateMutability": "view",
      "type": "function"
    }
  ],
  "bytecode": "0x608060405234801561001057600080fd5b50611364806100206000396000f3fe608060405234801561001057600080fd5b50600436106100575760003560e01c80635e0075a31461005c5780638823da6c14610078578063bc8bef8114610094578063cf12e870146100b2578063eb39113f146100ce575b600080fd5b61007660048036038101906100719190610e80565b6100fe565b005b610092600480360381019061008d9190610edc565b61017a565b005b61009c610438565b6040516100a99190611011565b60405180910390f35b6100cc60048036038101906100c79190610edc565b610541565b005b6100e860048036038101906100e39190610edc565b610a0f565b6040516100f5919061117d565b60405180910390f35b6000808373ffffffffffffffffffffffffffffffffffffffff1673ffffffffffffffffffffffffffffffffffffffff16815260200190815260200160002081908060018154018082558091505060019003906000526020600020016000909190919091509080519060200190610175929190610c25565b505050565b6000600260003373ffffffffffffffffffffffffffffffffffffffff1673ffffffffffffffffffffffffffffffffffffffff16815260200190815260200160002060008373ffffffffffffffffffffffffffffffffffffffff1673ffffffffffffffffffffffffffffffffffffffff16815260200190815260200160002060006101000a81548160ff0219169083151502179055506000600160003373ffffffffffffffffffffffffffffffffffffffff1673ffffffffffffffffffffffffffffffffffffffff16815260200190815260200160002080549050905060005b81811015610433578273ffffffffffffffffffffffffffffffffffffffff16600160003373ffffffffffffffffffffffffffffffffffffffff1673ffffffffffffffffffffffffffffffffffffffff16815260200190815260200160002082815481106102c9576102c861119f565b5b9060005260206000200160000160009054906101000a900473ffffffffffffffffffffffffffffffffffffffff1673ffffffffffffffffffffffffffffffffffffffff161415610420576000600160003373ffffffffffffffffffffffffffffffffffffffff1673ffffffffffffffffffffffffffffffffffffffff16815260200190815260200160002082815481106103665761036561119f565b5b9060005260206000200160000160146101000a81548160ff0219169083151502179055506001600360003373ffffffffffffffffffffffffffffffffffffffff1673ffffffffffffffffffffffffffffffffffffffff16815260200190815260200160002060008573ffffffffffffffffffffffffffffffffffffffff1673ffffffffffffffffffffffffffffffffffffffff16815260200190815260200160002060006101000a81548160ff0219169083151502179055505b808061042b90611207565b915050610259565b505050565b6060600160003373ffffffffffffffffffffffffffffffffffffffff1673ffffffffffffffffffffffffffffffffffffffff168152602001908152602001600020805480602002602001604051908101604052809291908181526020016000905b82821015610538578382906000526020600020016040518060400160405290816000820160009054906101000a900473ffffffffffffffffffffffffffffffffffffffff1673ffffffffffffffffffffffffffffffffffffffff1673ffffffffffffffffffffffffffffffffffffffff1681526020016000820160149054906101000a900460ff16151515158152505081526020019060010190610499565b50505050905090565b6001600260003373ffffffffffffffffffffffffffffffffffffffff1673ffffffffffffffffffffffffffffffffffffffff16815260200190815260200160002060008373ffffffffffffffffffffffffffffffffffffffff1673ffffffffffffffffffffffffffffffffffffffff16815260200190815260200160002060006101000a81548160ff0219169083151502179055506000600160003373ffffffffffffffffffffffffffffffffffffffff1673ffffffffffffffffffffffffffffffffffffffff16815260200190815260200160002080549050905060005b8181101561090e578273ffffffffffffffffffffffffffffffffffffffff16600160003373ffffffffffffffffffffffffffffffffffffffff1673ffffffffffffffffffffffffffffffffffffffff16815260200190815260200160002082815481106106905761068f61119f565b5b9060005260206000200160000160009054906101000a900473ffffffffffffffffffffffffffffffffffffffff1673ffffffffffffffffffffffffffffffffffffffff1614156108fb5760011515600160003373ffffffffffffffffffffffffffffffffffffffff1673ffffffffffffffffffffffffffffffffffffffff168152602001908152602001600020828154811061072f5761072e61119f565b5b9060005260206000200160000160149054906101000a900460ff1615151415610759575050610a0c565b600360003373ffffffffffffffffffffffffffffffffffffffff1673ffffffffffffffffffffffffffffffffffffffff16815260200190815260200160002060008473ffffffffffffffffffffffffffffffffffffffff1673ffffffffffffffffffffffffffffffffffffffff16815260200190815260200160002060009054906101000a900460ff16156108fa5760018060003373ffffffffffffffffffffffffffffffffffffffff1673ffffffffffffffffffffffffffffffffffffffff168152602001908152602001600020828154811061083a5761083961119f565b5b9060005260206000200160000160146101000a81548160ff0219169083151502179055506000600360003373ffffffffffffffffffffffffffffffffffffffff1673ffffffffffffffffffffffffffffffffffffffff16815260200190815260200160002060008573ffffffffffffffffffffffffffffffffffffffff1673ffffffffffffffffffffffffffffffffffffffff16815260200190815260200160002060006101000a81548160ff0219169083151502179055505050610a0c565b5b808061090690611207565b915050610620565b50600160003373ffffffffffffffffffffffffffffffffffffffff1673ffffffffffffffffffffffffffffffffffffffff16815260200190815260200160002060405180604001604052808473ffffffffffffffffffffffffffffffffffffffff168152602001600115158152509080600181540180825580915050600190039060005260206000200160009091909190915060008201518160000160006101000a81548173ffffffffffffffffffffffffffffffffffffffff021916908373ffffffffffffffffffffffffffffffffffffffff16021790555060208201518160000160146101000a81548160ff0219169083151502179055505050505b50565b60603373ffffffffffffffffffffffffffffffffffffffff168273ffffffffffffffffffffffffffffffffffffffff161480610ad15750600260008373ffffffffffffffffffffffffffffffffffffffff1673ffffffffffffffffffffffffffffffffffffffff16815260200190815260200160002060003373ffffffffffffffffffffffffffffffffffffffff1673ffffffffffffffffffffffffffffffffffffffff16815260200190815260200160002060009054906101000a900460ff165b610b10576040517f08c379a0000000000000000000000000000000000000000000000000000000008152600401610b07906112ad565b60405180910390fd5b6000808373ffffffffffffffffffffffffffffffffffffffff1673ffffffffffffffffffffffffffffffffffffffff168152602001908152602001600020805480602002602001604051908101604052809291908181526020016000905b82821015610c1a578382906000526020600020018054610b8d906112fc565b80601f0160208091040260200160405190810160405280929190818152602001828054610bb9906112fc565b8015610c065780601f10610bdb57610100808354040283529160200191610c06565b820191906000526020600020905b815481529060010190602001808311610be957829003601f168201915b505050505081526020019060010190610b6e565b505050509050919050565b828054610c31906112fc565b90600052602060002090601f016020900481019282610c535760008555610c9a565b82601f10610c6c57805160ff1916838001178555610c9a565b82800160010185558215610c9a579182015b82811115610c99578251825591602001919060010190610c7e565b5b509050610ca79190610cab565b5090565b5b80821115610cc4576000816000905550600101610cac565b5090565b6000604051905090565b600080fd5b600080fd5b600073ffffffffffffffffffffffffffffffffffffffff82169050919050565b6000610d0782610cdc565b9050919050565b610d1781610cfc565b8114610d2257600080fd5b50565b600081359050610d3481610d0e565b92915050565b600080fd5b600080fd5b6000601f19601f8301169050919050565b7f4e487b7100000000000000000000000000000000000000000000000000000000600052604160045260246000fd5b610d8d82610d44565b810181811067ffffffffffffffff82111715610dac57610dab610d55565b5b80604052505050565b6000610dbf610cc8565b9050610dcb8282610d84565b919050565b600067ffffffffffffffff821115610deb57610dea610d55565b5b610df482610d44565b9050602081019050919050565b82818337600083830152505050565b6000610e23610e1e84610dd0565b610db5565b905082815260208101848484011115610e3f57610e3e610d3f565b5b610e4a848285610e01565b509392505050565b600082601f830112610e6757610e66610d3a565b5b8135610e77848260208601610e10565b91505092915050565b60008060408385031215610e9757610e96610cd2565b5b6000610ea585828601610d25565b925050602083013567ffffffffffffffff811115610ec657610ec5610cd7565b5b610ed285828601610e52565b9150509250929050565b600060208284031215610ef257610ef1610cd2565b5b6000610f0084828501610d25565b91505092915050565b600081519050919050565b600082825260208201905092915050565b6000819050602082019050919050565b610f3e81610cfc565b82525050565b60008115159050919050565b610f5981610f44565b82525050565b604082016000820151610f756000850182610f35565b506020820151610f886020850182610f50565b50505050565b6000610f9a8383610f5f565b60408301905092915050565b6000602082019050919050565b6000610fbe82610f09565b610fc88185610f14565b9350610fd383610f25565b8060005b83811015611004578151610feb8882610f8e565b9750610ff683610fa6565b925050600181019050610fd7565b5085935050505092915050565b6000602082019050818103600083015261102b8184610fb3565b905092915050565b600081519050919050565b600082825260208201905092915050565b6000819050602082019050919050565b600081519050919050565b600082825260208201905092915050565b60005b8381101561109957808201518184015260208101905061107e565b838111156110a8576000848401525b50505050565b60006110b98261105f565b6110c3818561106a565b93506110d381856020860161107b565b6110dc81610d44565b840191505092915050565b60006110f383836110ae565b905092915050565b6000602082019050919050565b600061111382611033565b61111d818561103e565b93508360208202850161112f8561104f565b8060005b8581101561116b578484038952815161114c85826110e7565b9450611157836110fb565b925060208a01995050600181019050611133565b50829750879550505050505092915050565b600060208201905081810360008301526111978184611108565b905092915050565b7f4e487b7100000000000000000000000000000000000000000000000000000000600052603260045260246000fd5b7f4e487b7100000000000000000000000000000000000000000000000000000000600052601160045260246000fd5b6000819050919050565b6000611212826111fd565b91507fffffffffffffffffffffffffffffffffffffffffffffffffffffffffffffffff821415611245576112446111ce565b5b600182019050919050565b600082825260208201905092915050565b7f796f7520646f6e27742068617665206163636573730000000000000000000000600082015250565b6000611297601583611250565b91506112a282611261565b602082019050919050565b600060208201905081810360008301526112c68161128a565b9050919050565b7f4e487b7100000000000000000000000000000000000000000000000000000000600052602260045260246000fd5b6000600282049050600182168061131457607f821691505b60208210811415611328576113276112cd565b5b5091905056fea2646970667358221220a3dcb28cb5412eb2abf67edf9ead21e09c9edd777354550949653cd2c461de5c64736f6c63430008090033",
  "linkReferences": {},
  "deployedLinkReferences": {}
}